:020000040800F2
:10000000280C0020F9010008752600084B22000882
:10001000D12400087F1F0008F33A00080000000008
:10002000000000000000000000000000252F000874
:10003000831F000800000000912A000839300008E2
:10004000130200081302000813020008130200083C
:10005000130200081302000813020008130200082C
:10006000130200081302000813020008130200081C
:10007000130200081302000813020008130200080C
:1000800013020008130200081302000813020008FC
:1000900013020008130200081302000813020008EC
:1000A00013020008130200081302000813020008DC
:1000B000A53200081302000813020008130200080A
:1000C00013020008130200081302000813020008BC
:1000D000130200080D3A000813020008130200087A
:1000E000130200081302000813020008130200089C
:1000F000130200081302000813020008130200088C
:10010000130200081302000813020008130200087B
:10011000130200081302000813020008130200086B
:10012000130200081302000813020008130200085B
:1001300000F002F800F050F80AA090E8000C8244A9
:100140008344AAF10107DA4501D100F045F8AFF286
:10015000090EBAE80F0013F0010F18BFFB1A43F0A5
:1001600001031847906B0000B06B0000103A24BFE9
:1001700078C878C1FAD8520724BF30C830C144BF0C
:1001800004680C607047000000230024002500264E
:10019000103A28BF78C1FBD8520728BF30C148BFEA
:1001A0000B607047662904F07282642900F05A805F
:1001B000002070471FB500F09FFC040000200021C4
:1001C00003F074FE401C60600020002103F058FE24
:1001D000E0601FBD10B510BD00F0B6FD1146FFF781
:1001E000E9FF03F013FE01F02FF803B4FFF7F2FF6D
:1001F00003BC03F045FD000009488047094800475B
:10020000FEE7FEE7FEE7FEE7FEE7FEE7FEE7FEE7C6
:10021000FEE7FEE704480549054A064B7047000023
:100220003D3000083101000828060020280C00207D
:100230002808002028080020704700000FB41CB5D3
:10024000074B06AA7B4469460090059800F0C3FB63
:100250000020694600F0D2FB1CBC5DF814FB0000D6
:10026000B50700002DE9F041064600241068752905
:10027000314616A510D0AFF30080002802DA4042C4
:1002800013A507E031688A0701D512A502E04907E6
:1002900004D511A5012401E0AFF3008000210A225A
:1002A00006F1240709E0B0FBF2FCB0FBF2F302FB1D
:1002B0001C00303078541846491C0028F3D12346DE
:1002C0002A463046BDE8F04100F019B900000000B0
:1002D0002D0000002B000000200000002DE9F04759
:1002E0004FF0000A89460446C0F820A02046E16885
:1002F0008847002876D0252806D0D4E901219047E8
:10030000206A401C2062F1E7E1682046002588470A
:10031000C4F81CA006460027C4F818A02A2E09D04D
:10032000304603F0A6FC38B304EB8708303EC8F82B
:10033000186019E059F8041B204604EB870291610C
:10034000E1688847012F064618D1E069002820DAC5
:1003500025F020051DE0D8F8180000EB800006EB22
:1003600040003038C8F818002046E1688847064643
:1003700003F07FFC0028EED1012F0AD02E2E08D1E9
:100380002046E16888477F1C0646022F45F020057D
:10039000C4DBA069002803DA404245F00105A061F2
:1003A000E80701D025F01005B6B1A6F141001928E3
:1003B00002D8203645F400654A463146204625607D
:1003C0004D46FFF7EFFE58B1012806D0ED1D25F090
:1003D000070000F1080989E704E005F1040985E751
:1003E00030468AE7206ABDE8F087401ECAB210F89E
:1003F000011F8A4202D00029F9D10020704740EA4B
:100400000103024630B59B0710D14FF0013400E0E4
:1004100008C208C91D1B9D4315EAC41FF8D013F07C
:10042000FF0102F8011B0DD01B0AF8E711F8013B90
:10043000002B02F8013B05D011F8013B002B02F81C
:10044000013BF3D130BD10B5431C02E010F8011B95
:1004500071B18107FAD14FF0013202C88C1A8C4376
:1004600014EAC211F9D0C01A0A0603D0C01E10BD8A
:10047000C01A10BD0A0401D0801E10BD0902FCD0B4
:10048000401E10BD421E12F8013F002BFBD111F897
:10049000013B002B02F8013BF9D170474FF00002FD
:1004A0000429C0F0128010F0030C00F0FF82CCF1A0
:1004B000040CBCF1020F18BF00F8012BA8BF20F8F4
:1004C000022BA1EB0C0100F0F1BA5FEAC17C24BF62
:1004D00000F8012B00F8012B48BF00F8012B7047F2
:1004E000704770477047704710B500F009FB00680F
:1004F00010BD10B5044600F003FB046010BD2DE9EB
:10050000F0470D4699469246044600F124080168DA
:10051000880604D5E06921F01001216000E0012087
:10052000A84201DD471B00E00027A1697A1902EB10
:100530000900081AA0612078C00602D42046AFF353
:100540000080002608E0D4E901211AF8060090474F
:10055000206A401C761C20624E45F4DB2078C006E1
:100560000AD52046AFF3008006E0D4E9012130200F
:100570009047206A401C2062381EA7F10107F4DC76
:1005800007E0D4E9012118F805009047206A401CD3
:100590002062281EA5F10105F3DC2046AFF30080A0
:1005A0002078000602D50220BDE8F0870120FBE795
:1005B00070472DE9FF4F0C461E464FF0FF378BB0BA
:1005C000D2E90001DDF860800A908A46C1F30A553D
:1005D00005B93D46002108464FF00000BAF1000F72
:1005E00000F4400005DA00EB80004FF4400101EA1E
:1005F00050004FEA9059B9F1010F00DDB9460A9851
:1006000050EA4A000ED044F61050A5F2FF3545439B
:100610002F14B8F1000F1ED07542291E1EDDC9F13E
:1006200000021CE0B8F1010F4FF0000001D03021B2
:1006300003E0F24305E02154401CB042FBDB3046AE
:100640000022002121540B99C1F80880C1E9002043
:100650000FB0BDE8F08FBD1B6D1CDEE74A4600DA27
:10066000694206A800F0FEFA06AB93E8070003AB68
:1006700083E8070050460A9901F073F88DE80700F7
:10068000A0F500501F3800900398002D09DD42F2BC
:100690001F014A46084403A90390684601F0FDFA89
:1006A00008E0A0F500504A461F3803A903906846A9
:1006B00001F01BFB8DE807000004000C03D04FF095
:1006C000FF30410800E01046B8F1000F03D00022CF
:1006D000009215461EE0751E05D400F015FA303262
:1006E00062556D1EF9D5B3460122084302D000229F
:1006F0007F1C04E02078302801D100227F1E002AD0
:10070000099786D01DE0112D07DA00F0FDF930328F
:1007100062556D1C50EA0102F5D1084302D00098E1
:10072000C8B10EE00021681E05E0235C625C6354E2
:100730002254401E491C8142F7DBAB46A81B401ED9
:100740000990002004F80B000B98099AC0F8088063
:10075000C0E9002B7CE711264FF0000859E72DE98E
:10076000F04F88460446D21D22F0070191B0D1E92E
:100770000001CDE90A0103F001FA02460B98C00F0F
:1007800001D02D2007E02068810701D52B2002E051
:10079000202101EAC000032A099001D0072A05DBC5
:1007A00003464146204600F0FDF90BE12078800623
:1007B00001D5E06900E00620B8F1650F814606D05A
:1007C000B8F1660F18D0B8F1670F70D131E0002092
:1007D000B9F1110F009001DB112301E009F10103D0
:1007E0000AAA01A90CA8FFF7E4FEDDE90C700026B7
:1007F00009F10105834647E001204B4600904FF088
:1008000000470AAA01A90CA8FFF7D3FEDDE90DB045
:100810000C995D46002610B909F101000D18B9EBDD
:10082000050003D4C0F1FF3609F10105A5EB09006D
:100830002BE0B9F1010F01DA4FF001090020B9F105
:10084000110F0090484601DD112300E003460AAA7B
:1008500001A90CA8FFF7ADFEDDE90C704D4600269E
:100860008346207800070AD4AB4500DA5D4601A82C
:10087000012D04DD411911F8011C302907D04F4525
:1008800002DA17F1040F04DA012082460FE06D1E30
:10089000EEE7002F02DCED1B3E4403E0781CA8428B
:1008A00000DD7D1CB81B00F1010A4FF000472078E5
:1008B000000703D4AA4501DB4FF0FF3A0021B7F14E
:1008C000004F0DF143088DF8431024D002202B2354
:1008D000002F01DA7F422D230A21021EA0F1010020
:1008E00000DC5FB197FBF1FC97FBF1F201FB1C7C94
:1008F00017460CF1300C08F801CDEEE7A8F1010025
:1009000003702188090501D5452100E06521A0F18A
:10091000010800F8011C09980FA9A1EB0807FF1DA9
:1009200000B10120411901EBEA70A1693844081AAD
:10093000401EA0612078C00602D42046AFF300809C
:10094000099828B1D4E901219047206A401C20620F
:100950002078C00622D52046AFF300801EE0002E8E
:1009600004DBB34502DD01A8805D00E03020D4E95E
:1009700001219047206A401C2062761CAAF10100E8
:100980005FEA000A0AD100F0B7F8C0680168405C6D
:10099000D4E901219047206A401C2062281EA5F15D
:1009A0000105DCDC07E0D4E9012118F8010B9047D0
:1009B000206A401C2062381EA7F10107F3DC2046A4
:1009C000AFF30080032011B043E6000001694A1C28
:1009D00002610878704700B58FB0CDE90131002180
:1009E000059105497944CDE9031011466846FFF7A2
:1009F00075FC0FB000BD0000E5FFFFFF0A6802F8BC
:100A0000010B0A60704700000FB4002300B589B0E5
:100A10000CA900910B99CB60204B7B440693204B93
:100A20007B44079304236FF00042CDE901321D4A55
:100A30007A446B4608920246002003F08AFE09B011
:100A40005DF814FB70B506464FF0FF3015460C46B6
:100A5000324686B00091CDE901016946002004903C
:100A600004A8FFF7D1FF03460498211825B108B167
:100A70000A4600E022462A6000280DD0002B02DD45
:100A80000098884208D03246081B69460094CDE998
:100A9000010404A8FFF7B8FF06B070BD070200000C
:100AA0001F0200005F0100004FF0000200B5134676
:100AB00094469646203922BFA0E80C50A0E80C507E
:100AC000B1F12001BFF4F7AF090728BFA0E80C502F
:100AD00048BF0CC05DF804EB890028BF40F8042B28
:100AE00008BF704748BF20F8022B11F0804F18BF95
:100AF00000F8012B7047000000487047E80500200F
:100B000000487047C805002030B5B0F10A024FEA2E
:100B1000900E71F100034EEA817EB0EB0E0061EBA6
:100B200091014FEA101E4EEA017E10EB0E0041EBE0
:100B300011114FEA102E4EEA016E10EB0E0041EB40
:100B400011214FEA104E4EEA014E10EB0E0041EB20
:100B50001141401841F100014FEAD00040EA4170D4
:100B60004FEAD10110EB80054FEA810444EA90740A
:100B700044EB01046D1944EB0404521BA3414FF0F4
:100B8000000348BF0A3200D530BD401C41F10001CE
:100B900030BD10B5044600F0FDF80068005D00F0BF
:100BA000010010BD2DE9F0411F46044603260168EF
:100BB000072A01F4006004DB08B116A505E016A5BC
:100BC00003E008B115A500E015A521F01000206094
:100BD000A069C01EA0610FB1401EA0612046AFF306
:100BE00000804FB1D4E9012138469047206A401C6B
:100BF0002062C01C206206E0206AFAE7D4E90121E5
:100C000015F8010B9047761EF8D22046AFF300800E
:100C1000BDE8F0814E414E006E616E00494E4600C7
:100C2000696E6600426842B1016811F8013B23B168
:100C3000521EC0E90012184670470121C160881E8B
:100C4000704742685AB1C368016843B983688B42F0
:100C500005D0491E521CC0E90012002070474FF019
:100C6000FF3070472DE9F047814616468AB0334879
:100C700078440DC88DE80D0030487844801C03ACE2
:100C80000DC884E80D0041F69B300844372190FBE5
:100C9000F1F290FBF1F5A5F1800501FB12041B3C7C
:100CA00002D56442012000E00020DFF890A08046D9
:100CB0000027FA44AAF1BE0A0DE0E00709D0324647
:100CC000684607EB47010AEB810101F00EF88DE859
:100CD000070064107F1C002CEFD1184F7F44AC3FFD
:100CE00018E0E80714D007EB04100DF1180A90E89B
:100CF0000E008AE80E00C068F04201D198190890F1
:100D0000324606A903A800F0F0FF03AB83E8070012
:100D10006D10641C002DE4D132466946B8F1000F15
:100D200003A802D000F0B9FF01E000F0DEFFC9E93E
:100D30000001C9F808200AB0BDE8F087686000002B
:100D400000487047C80500207546FFF7F9FFAE461A
:100D500005006946534620F00700854618B020B5C7
:100D6000FFF758FABDE820404FF000064FF00007AB
:100D70004FF000084FF0000B21F00701AC46ACE843
:100D8000C009ACE8C009ACE8C009ACE8C0098D46B0
:100D90007047000010B5FFF7AFFE001D10BD00BF8B
:100DA0000D3100002DE9FF4F064689B00878FF2875
:100DB00006D0491C2D2805D000244FF0000908E07A
:100DC00000200CE00124F8E709EB8903491C00EB43
:100DD00043090878FF28F7D114B1C9F10000814612
:100DE000107800252C46AA4629462D2801D02B280C
:100DF00004D1521C2D2813D0002082468B46107837
:100E0000FF280FD04FF0000C0A21521CA5FB0178DF
:100E100004FB018105FB0C11C5194BEB0104EEE746
:100E20000120EAE7002108464FF00000BAF1000F68
:100E300002D000EB80004008C0F38158B8F1010FE8
:100E400001DD4FF0FF380C9809EB000755EA04006C
:100E500009D04FF0020917F5FA7F0BDA4FEACA7092
:100E6000C6E900B012E04FEACA70C6E900B00DB0A2
:100E7000BDE8F08FB7F5FA7F0DDDF0487844D0E992
:100E80000010C6E9001040EACA707060FFF738FE33
:100E9000C0F80090EBE7391E02DAC8F1000200E06A
:100EA000424600DA794206A8FFF7DCFE06AB93E87B
:100EB000070003AB83E8070044F23E005BEA04014D
:100EC0000090584604D144F21E012C465D46009124
:100ED000210C0904014306D10099240444EA154475
:100EE0002D041039009104F07F41014306D100998F
:100EF000240244EA15642D020839009104F070417F
:100F0000014306D10099240144EA15742D01091FFB
:100F1000009104F04041014306D10099A40044EA45
:100F20009574AD00891E009104F00041084304D17E
:100F300000986D196441401E009042466846002F9B
:100F4000CDE9014503A902DD00F0E3FE01E000F078
:100F5000B8FEBAF1000F04460D4601D084F00044FB
:100F600040F2FF7724F00040284303D0C4F30A5036
:100F7000B84212D1FFF7C4FDC0F80090C4F30A5084
:100F8000B8420AD1AE487844D0E90010C6E9001052
:100F900004F000410843706069E7C6E9005466E761
:100FA0002DE9FF4F1F464FF0000A4FF0FF3845462E
:100FB00091B0D7E90146CDF83CA0FFF79DFDC06890
:100FC0000168405C1090B96912986D1C8847396AB5
:100FD000814688470028F6D1B9F1FF3F0AD0002E9C
:100FE00024F4D06411DDB9F12B0F08D0B9F12D0F25
:100FF0000BD102E0404615B03AE744F48064B96989
:1010000012986D1C8847761E8146600504A901D59B
:101010002D2000E02B20002E01F1010B0DF13008F6
:101020008DF810003FDDB9F1690F08D0B9F1490F13
:1010300005D0B9F16E0F02D0B9F14E0F1CD13B466D
:1010400001A8009580E85002DDE912126FF002005D
:1010500003F083FBC11CCED10EE0B96912986D1C60
:10106000884781461398761E44F4007405600F98F3
:10107000401C002E0F9016DDB9F1300FEDD0B9F104
:10108000780F02D0B9F1580F0DD10F9801280AD16D
:101090003B46CDE90054DDE91212001F029603F031
:1010A0005AFBC11CA7D1109989453ED144F0800458
:1010B00006E01399681CAAF1010A44F40074086060
:1010C000B9696D1C1298761E884730288146F0D089
:1010D0002BE01099894505D1200603D4761E44F0F3
:1010E000800418E0484602F0C4FD08B3761E0DF1F6
:1010F00023018B4544F4007408D2A9F130000BF8A9
:10110000010B200607D5AAF1010003E0200602D456
:101110000AF101008246A00502D51399681C0860F7
:10112000B96912986D1C88478146002ED1DC53E0C6
:10113000002E51DDB9F1650F02D0B9F1450F4BD149
:10114000A00549D5B9696D1C1298761E24F4407427
:101150008847002E81460CDD2B2804D0B9F12D0FD5
:1011600007D144F48074B96912986D1C8847761EC3
:101170008146E00501D52D2100E02B2108F8011B57
:10118000CDF8008021E0761E0DF13901884544F448
:1011900000740CD2A9F1300010F0FF0088F80000B4
:1011A00002D10099884509D908F1010806E0E00557
:1011B00001D5244801E042F20F708246B9691298C5
:1011C0006D1C8847814613980560002E04DD484653
:1011D00002F04FFD0028D6D1F96912988847FF2008
:1011E00053468BF8000088F8000000200A900B900E
:1011F00004AA0CA90AA8FFF7D5FDA00502D46FF038
:101200000100F8E614F0240F0AD0E00714D1386882
:10121000DDE90A12031D3B600068C0E900120BE023
:101220000AA9684602F0CEFCE00705D13868009AAA
:10123000011D3960006802602846DCE6945E00000B
:101240008A5D0000F1D8FFFF0446AFF3008020461E
:10125000FEF7CBFF4FF0013C50F8042B51F8043B54
:101260009A4221D1A2EB0C03934313EACC1317D17A
:1012700050F8042B51F8043B9A4215D1A2EB0C0311
:10128000934313EACC130BD150F8042B51F8043BD1
:101290009A4209D1A2EB0C03934313EACC13DBD09F
:1012A0004FF00000704700BFD01A01BAB1FA81F1C7
:1012B00001F0180122FA01F0CB40C1F12001DBB2AC
:1012C000C0B2C01A2CFA01F3D11A914311EAC3112A
:1012D000E6D170472DE9FF4F1F464FF03C0987B01C
:1012E0004FF00042DDE9141001F10108DDF858A0CB
:1012F00002EA4050039000200490834605460446CD
:101300000590B969461E08988847AAF1010A02901B
:10131000BAF1000F37DD02982E2815D0102100F009
:1013200012FA00282ADB4FF0010B0499014316D072
:10133000B9F1000F0BDB4A46C11700F0F1F9054384
:101340000C43A9F1040905E00120059007E008B16C
:1013500045F0010501200490059800B9361DB969D2
:10136000089808F101088847BBF1000FAAF1010AAB
:101370000290CDD00999C1F80080C9E70298702881
:1013800008D0502806D0F96908988847BBF1000FAB
:1013900014D04FE0002002900120BBF1000F049018
:1013A00009D0B969089808F101088847AAF101092C
:1013B000B9F1000F07DCF969089888476FF0010060
:1013C0000BB0BDE8F08F2B2804D02D280CD14FF0A6
:1013D000FF300490B969089808F101088847A9F11D
:1013E0000109B9F1000FE6DD411CE4D00A2100F04B
:1013F000AAF90028DFDB029908F1010801EB81015D
:1014000000EB41000290B969089888470A2100F072
:101410009AF9099AA9F10109B9F1000FC2F80080FF
:1014200001DD0028E7DAF9690898884704990298ED
:1014300000FB016655EA040004D004F040410900B5
:1014400002D006E0039898E0A40044EA9574AD0049
:10145000B61E04F00041080002D16D196441761EE9
:10146000159810F0240F03D04FF00B095C4803E0EF
:101470004FF028096FF07D008246564507DAAAEB47
:1014800006018944B9F1410F01DD4FF04109012006
:101490000021A9F1010200F043F9024628400B4661
:1014A0002140084301D0012100E00021501E02919B
:1014B00043F1FF3128402140084301D0012000E0E2
:1014C00000200299834651EA0B014FD000210846C3
:1014D0004FF00000039900F4400039B100EB8000A8
:1014E0004FF4400100EBD07001EA60008015012844
:1014F00002DD4FF0FF3000E013D0401C36D00298E0
:1015000060B3BBF1000F0CD14A460120002100F06E
:1015100007F928402140084301D0012000E00020C5
:10152000E0B101204A46002100F0FAF803464019D4
:101530000A4661412D1A8C4111D3B9F1400F09DDE2
:10154000159810F0240F02D0AAF1340603E0AAF196
:10155000170600E0761C00254FF0004406E05B1EF5
:1015600042F1FF3220EA030521EA0204CAF1010038
:10157000B04206DA1B49039808430190002000900E
:101580000EE0039AC4F3D321E80A0A43164940EA5D
:1015900044500A433146CDE90002684602F05EFB42
:1015A000159810F0240F0BD01598C00715D1386886
:1015B000DDE90012031D3B600068C0E900120CE089
:1015C00002A8694602F0FEFA1598C00705D13868EE
:1015D000029A011D3960006802604046F0E6000092
:1015E00002FCFFFF0000F07F0000F03F2DE9FF4FFD
:1015F00092461D4685B04FF00041DDE9124BDDE912
:1016000014727F1E01EA4B50414940F0FF4940EA05
:101610000108002122F020004928049102D04E2820
:1016200028D04CE03BA0012607C88DE80700A96937
:101630000698641C88477F1E014606D41DF80600E4
:1016400018B121F0200181420BD0E9690698884742
:10165000032E34D0082E32D06FF0010009B0BDE85F
:10166000F08F761C032E01D0082EE0D1601CCAF842
:101670000000DCE7A9690698641C88477F1E2AD40D
:1016800020F02000412826D1A9690698641C8847CB
:101690007F1E20D420F020004E281CD1A969069876
:1016A000641C88477F1E48F4002849F48009CAF862
:1016B000004001D4282806D0E969069888475FEAE7
:1016C000CB7012D022E0A9690698641C88477F1E5F
:1016D00001D4002803DAE96906988847BCE729287D
:1016E000F1D1641CCAF80040E9E71BF0240F07D0D1
:1016F00028680499031D2B600068C0E9001805E004
:101700002868021D2A600068C0F800902046A5E7FE
:101710000000F07F494E46494E49545900000000F0
:10172000B2F120030AD5C2F1200301FA02F120FA36
:1017300003F300FA02F041EA0301704700FA03F1F3
:101740004FF0000070473A2800D2303820F02002D5
:10175000412A01D3A2F13700884201D34FF0FF3074
:1017600070475FEA400C08BF91F0000F4FEA8C23EE
:101770004FEAC12243EA51514FEA1C5018BF00F50D
:10178000F0404FEA300018BF41F000415FEA6C5C66
:1017900000F02980BCF1FF3F08BF40F08040704757
:1017A000130C06BF12044FF0100C4FF0000C130E78
:1017B00004BF12020CF1080C130F04BF12010CF14C
:1017C000040C930F04BF92000CF1020CD30F04BF62
:1017D00052000CF1010C11464FF00002A0F11F0065
:1017E000A0EB0C00704711F0004F08BF704731F0BC
:1017F00000413FF4D5AF0B0C06BF09044FF0100CAD
:101800004FF0000C0B0E04BF09020CF1080C0B0F7B
:1018100004BF09010CF1040C8B0F04BF89000CF10B
:10182000020CCB0F04BF49000CF1010CCCF12003DA
:10183000A0EB0C0022FA03F302FA0CF241EA0301D6
:1018400000F10100704720F07F4C80EA030023F094
:101850007F47ACEB070303F57C5300F0004003F136
:10186000FF032DE980494FEA154B09B44FEA1443B1
:1018700025EA0B4E24EA03480FF2042606EB132751
:1018800049083E785FEA320203FB0667C7F50007A6
:1018900007FB06F64FEA54374FEAD64606F1020632
:1018A00007FB066CCCF1005C4FEA1C472CEA074CA6
:1018B00007FB06F40CFB06F504EB15464FEA9616FB
:1018C00034BF00204FF000404FEAD13706FB07FC41
:1018D0004FEA1C4C0CFB0BF7D21B03FB0CF761EB24
:1018E00007010CFB0EF7B0EB074072EB17420CFB45
:1018F00008F734BFA2EB0742B2EB074261EB174196
:101900004FEA0C444FEA910706FB07FC4FEA1C4CD8
:101910000CFB0BF7B0EBC74072EB573203FB0CF735
:1019200034BFA2EBC742B2EBC74261EB57310CFBAD
:101930000EF7B0EBC70072EB57720CFB08F734BF21
:10194000A2EBC702B2EBC70261EB5771039F4FEAEC
:10195000816141EA921104EBCC044FEAD1374FEA9E
:10196000826206FB07FC42EA90124FEA80604FEA6F
:101970001C4C0CFB0BF7D21B03FB0CF761EB0701B4
:101980000CFB0EF7B0EB074072EB17420CFB08F7AD
:1019900034BFA2EB0742B2EB074261EB17414FEABB
:1019A0008C554FEA910704EB9C2406FB07FC4FEA99
:1019B0001C4C0CFB0BF7B0EBC74072EB573203FB30
:1019C0000CF734BFA2EBC742B2EBC74261EB573111
:1019D0000CFB0EF7B0EBC70072EB57720CFB08F76D
:1019E00034BFA2EBC702B2EBC70261EB577115EB34
:1019F0004C254FEA816141EA92114FEA82624FEA37
:101A0000D13742EA901206FB07FC44F100044FEA8A
:101A100080604FEA1C4C0CFB0BF7D21B03FB0CF74E
:101A200061EB07010CFB0EF7B0EB074072EB1742BE
:101A30000CFB08F734BFA2EB0742B2EB074261EBA5
:101A4000174115EB1C154FEA813141EA92414FEAEB
:101A5000823242EA90424FEA80304FEA0C7644F1FB
:101A6000000448EA03434EEA0B484FF0000EB2EB85
:101A7000080C71EB030724BF624639464EEB0E0E8D
:101A80004FF0000B0018524149414BEB0B0BB2EBEE
:101A9000080C71EB03077BF1000B24BF624639464B
:101AA0004EEB0E0E4FF0000B0018524149414BEB2C
:101AB0000B0BB2EB080C71EB03077BF1000B24BF9F
:101AC000624639464EEB0E0E51EA020718BF46F049
:101AD000010616EB0E7655F1000254F1000103D514
:101AE000BDE88901BDE80088BDE88901BDE800487E
:101AF000B619524141EB0101A3F101037047808007
:101B00007F7E7D7C7B7A7978777676757473727157
:101B100071706F6E6E6D6C6C6B6A6A69686867660F
:101B200066656464636362616160605F5F5E5E5DA1
:101B30005D5C5C5B5B5A5A59595858575756565515
:101B400055555454535352525251515050504F4F77
:101B50004F4E4E4D4D4D4C4C4C4B4B4B4A4A4A49C7
:101B6000494948484847474747464646454545440A
:101B700044444443434343424242424141410000C2
:101B800046EA0646A3F570534FEA164646EA425621
:101B90004FEAD22242EA415210B54FEAD121A3F1D5
:101BA000010300F017F820F0004000F1010C00F0F4
:101BB000004701EB00501146BCF5006F40EA0700FA
:101BC00000D210BD02484FF0000140EA070010BDEE
:101BD0000000F07F002B26D4770021D01CB54FEAFF
:101BE000370703B44FF010004FF010014FF0000022
:101BF0000FBCBDE810400BF1010BBBF1010F08BF9A
:101C00005FEA170722BF12F1010211F101014FF043
:101C1000004143F1000300F0004043EA0000704738
:101C2000F9D35708DAE746EA064613F1400F4FEAC0
:101C300016461FDD13F1200FDFBF16430A460021B1
:101C400020335B42C8D0C3F1200746EA064602FAB9
:101C500007F74FEA164646EA0706C3F1200722FABD
:101C600003F201FA07F721FA03F14FF0000342EA09
:101C70000702B1E746EA020646EA06464FEA16467A
:101C800046EA0106BCBF46EA0646360C4FF00003A2
:101C90004FF000024FF000019EE72DE9C048934647
:101CA00030B491E8380007C831EA400C48BF34EA44
:101CB000430C03D5FFF7C7FDFFF78CFFF0BCBDE871
:101CC00000882DE9C048934630B491E8380007C831
:101CD00031EA400C48BF34EA430C03D5FFF7B3FDAB
:101CE000FFF74EFFF0BCBDE800882DE9C0489346E1
:101CF00030B491E8380007C810F0804F08BF13F0E7
:101D0000804F03D100F019F8FFF764FFF0BCBDE885
:101D100000882DE9C048934630B491E8380007C8E0
:101D200010F0804F08BF13F0804F03D100F005F88A
:101D3000FFF726FFF0BCBDE8008820F07F4780EA6F
:101D4000030023F07F4C07EB0C03A3F57C5300F05A
:101D50000040A3F1FE0392F0000F00F0B38095F075
:101D6000000F00F077802DE901494FEA11404FEA5A
:101D7000144621EA004800FB06FC24EA064708FB5B
:101D800006F607FB08F800FB07F718EB06484CEBD4
:101D9000164C4FEA124B18EB07484FEA15464CEB2E
:101DA000174022EA0B4E0BFB06FC25EA06470EFB0A
:101DB00006F607FB0EFE0BFB07F71EEB064E4CEB81
:101DC000164C4FF000061EEB074E4CEB174B18EB72
:101DD0000B0840F1000018EB0E0B58EB000840F127
:101DE00000008F1A4FF000013CBFC943661B14BFAF
:101DF000B5EB040C00213CBFC943F61B4FEA174466
:101E00004EEA8E0E27EA04454FEA1C4704FB0762A0
:101E10002CEA074C05FB07F70CFB05F604FB0CFC52
:101E200016EB074642EB174216EB0C4642EB1C4200
:101E30001BEB060658EB0202414146EA9E0601D51D
:101E4000BDE80189B619524141EB0101A3F101033B
:101E5000BDE801894FEA14454FEA114724EA0546D7
:101E600021EA074C05FB07F406FB07F70CFB06F11C
:101E700005FB0CFC11EB074144EB17444FEA1247FA
:101E800011EB0C4144EB1C4422EA074C05FB07F222
:101E900006FB07F70CFB06F605FB0CFC16EB0746EA
:101EA00042EB174216EB0C4642EB1C456A1854F104
:101EB000000148BF7047B619524141EB0101A3F13F
:101EC0000103704795F0000F37D04FEA11424FEAF7
:101ED000144721EA024624EA074C02FB07F106FBFD
:101EE00007F70CFB06F402FB0CFC14EB074441EB78
:101EF00017414FEA154714EB0C4441EB1C4125EA0E
:101F0000074C02FB07F506FB07F70CFB06F602FB86
:101F10000CFC16EB074645EB174516EB0C4645EB5C
:101F20001C42121951F1000148BF7047B6195241C5
:101F300041EB0101A3F1010370474FEA14454FEA59
:101F4000114724EA054621EA074C05FB07F106FB89
:101F500007F70CFB06F24FF0000605FB0CFC12EB3A
:101F6000074241EB174112EB0C4251EB1C4148BFB9
:101F70007047921841EB0101A3F10103704700BFC4
:101F8000FEE7704730B5044604254FF4302000F0DA
:101F9000B1F80546042D17D10C48006940F0020045
:101FA0000A49086108464461006940F04000086140
:101FB0004FF4302000F09EF805460448006941F6D1
:101FC000FD71084001490861284630BD00200240EB
:101FD00004200B49C96801F0010109B101200EE09C
:101FE0000749C96801F0040109B1022007E004496A
:101FF000C96801F0100109B1032000E00420704716
:10200000002002400348006940F080000149086157
:10201000704700000020024078B506460C460425B3
:1020200000200090E80200F065F80546042D24D158
:102030001348006940F00100114908613480E8024A
:1020400000F058F80546042D10D1B01C0090200C6B
:1020500000990880E80200F04DF80546084800693C
:1020600041F6FE7108400649086106E0044800692F
:1020700041F6FE71084002490861284678BD00001B
:1020800000200240014800687047000000FE000880
:10209000014800687047000000FC000810B50446C5
:1020A00000F01CF80448FFF76DFF21460248FFF7D7
:1020B000B3FFFFF7A7FF10BD00FE000810B50446F0
:1020C00000F00CF80448FFF75DFF21460248FFF7D7
:1020D000A3FFFFF797FF10BD00FC0008024803496B
:1020E000486003484860704723016745002002406C
:1020F000AB89EFCD00B502460423FFF769FF034625
:1021000003E0FFF765FF0346521E012B01D1002AB1
:10211000F7D102B90523184600BD2DE9F04102466A
:1021200000250026002000230024002791F803C08A
:102130000CF00F0591F803C00CF0100CBCF1000F6F
:1021400003D091F802C04CEA050591F800C0BCF13B
:10215000000F31D0146800202BE04FF0010C0CFA76
:1021600000F3B1F800C00CEA03069E4220D18300C0
:102170004FF00F0C0CFA03F7BC4305FA03FC4CEAD2
:10218000040491F803C0BCF1280F06D14FF0010CF4
:102190000CFA00FCC2F814C00AE091F803C0BCF1CC
:1021A000480F05D14FF0010C0CFA00FCC2F810C02A
:1021B000401C0828D1D31460B1F800C0BCF1FF0F57
:1021C00034DD546800202EE000F1080C4FF00108C7
:1021D00008FA0CF3B1F800C00CEA03069E4221D1C4
:1021E00083004FF00F0C0CFA03F7BC4305FA03FC15
:1021F0004CEA040491F803C0BCF1280F05D100F1AA
:10220000080C08FA0CF8C2F8148091F803C0BCF16D
:10221000480F07D100F1080C4FF0010808FA0CF83C
:10222000C2F81080401C0828CED35460BDE8F0816D
:102230000246002093680B400BB1012000E0002013
:102240007047416170470161704700BFFEE70000C1
:1022500008B501F02DFD4FF4A06000F00DFA00F07C
:1022600049F901F049FC00F065FA00F00FFA01208D
:10227000102306A200210090084600F0A5FB4FF4B1
:102280007A7001F037FD00F001FA08BD53797374DC
:10229000656D20496E6974204F4B000008B54FF4FE
:1022A000FA70009000BF0098411E00910028FAD1FA
:1022B00008BD000070B50546002480211B48FFF7CB
:1022C000C2FF002616E040211848FFF7BCFFFFF7C9
:1022D000E5FF6006040E80211448FFF7A9FF08B14E
:1022E00044F0010440211148FFF7ABFFFFF7D6FF90
:1022F000701CC6B2082EE6DB25B980210B48FFF71B
:10230000A0FF03E080210948FFF79DFFFFF7C6FF0C
:1023100040210648FFF797FFFFF7C0FF4021034821
:10232000FFF78FFFFFF7BAFF204670BD000C01409A
:1023300070B5044600251DE004F0800020B1802126
:102340000E48FFF780FF03E080210C48FFF779FF7C
:102350006006040EFFF7A2FF40210848FFF773FF55
:10236000FFF79CFF40210548FFF76BFFFFF796FF43
:10237000681CC5B2082DDFDB70BD0000000C0140F9
:1023800010B580210A48FFF75EFF40210848FFF79B
:102390005AFFFFF783FF80210548FFF752FFFFF741
:1023A0007DFF40210248FFF74CFFFFF777FF10BD8C
:1023B000000C014010B580210748FFF742FF402183
:1023C0000548FFF740FFFFF769FF80210248FFF74C
:1023D0003AFFFFF763FF10BD000C014010B5002469
:1023E00080211148FFF72FFFFFF758FF40210E48CB
:1023F000FFF729FFFFF752FF07E0601CC4B2FA2C79
:1024000003DDFFF7D7FF012010BD80210648FFF74D
:102410000FFF0028F1D140210348FFF712FFFFF71B
:102420003DFF0020F0E70000000C01400146B1F53F
:10243000807F2FD012DC10292AD008DC012925D07A
:1024400002292BD0042931D008293FD136E0202998
:1024500026D040292CD0802938D131E0B1F5805FD9
:102460001AD009DCB1F5007F1CD0B1F5806F21D006
:10247000B1F5006F2AD125E0B1F5005F14D0B1F5B8
:10248000804F19D0B1F5004F20D11DE031207047A9
:102490003220FCE73320FAE74120F8E73420F6E762
:1024A0003520F4E73620F2E74220F0E73720EEE768
:1024B0003820ECE73920EAE74320E8E72A20E6E77E
:1024C0003020E4E72320E2E74420E0E70020DEE7D5
:1024D00000BFFEE710B508210148FFF7B4FE10BDAC
:1024E0000008014010B508210148FFF7AAFE10BD01
:1024F0000008014000B589B00121042000F0F0FC83
:102500000121084600F0DCFC0F20ADF8200010206F
:102510008DF8230003208DF8220008A92348FFF737
:10252000FCFD01212148FFF78CFE02211F48FFF727
:102530008AFE04211D48FFF784FE08211B48FFF78F
:1025400080FE05A800F0A0FF40F2E730ADF81800CB
:102550004720ADF814000020ADF81A00ADF81600C1
:1025600005A94FF0804000F03DFF01A800F02BFFCF
:102570006020ADF804000120ADF806004FF4FA70B9
:10258000ADF80A000020ADF80C0001A94FF0804022
:1025900000F0C4FE0821C80600F00CFF00214FF037
:1025A000804000F094FE09B000BD0000000801402A
:1025B00010B5044602210348FFF745FE204600F00F
:1025C0000FF810BD0008014010B504460221034871
:1025D000FFF737FE204600F003F810BD0008014069
:1025E00070B505462DB900214FF0804000F06FFE18
:1025F00070BD4FF4C85068433C21B0FBF1F615485C
:10260000B0FBF6F404B90124B4F5803F01D34FF6D2
:10261000FF74601E81B24FF0804000F0DEFEC4F314
:102620004F014FF0804000F0DAFE01221146900782
:1026300000F06AFE1C20012181404209920002F153
:10264000E022C2F8001100BF0121880700F03FFE20
:1026500000BFCDE740420F0010B500214FF0804091
:1026600000F035FE01210248FFF7EBFD10BD000030
:10267000000801407047000002490143024A11600E
:10268000704700000000FA050CED00E070B5002472
:102690000CE0002506E00020074901EBC5010855C4
:1026A000681CC5B2802DF6DB601CC4B2082CF0DBC0
:1026B00000F0C6F870BD000048010020F0B51446D7
:1026C0000B46CF1701EB5777C7F3C702CF1701EBC4
:1026D0005777FF10A1EBC707FEB20123B340DDB26D
:1026E0004CB1134B03EBC0039B5C2B43104F07EB28
:1026F000C007BB541AE00E4B03EBC0039B5CDB43EB
:102700000B4F07EBC007BB54094B03EBC0039B5CAB
:102710002B43074F07EBC007BB54054B03EBC0032C
:102720009B5CDB43024F07EBC007BB54F0BD0000CE
:102730004801002008B50121082000F0D1FB4FF42A
:10274000F840ADF8000010208DF8030003208DF84C
:10275000020069463948FFF7E0FC4FF4F84137487A
:10276000FFF771FD4FF480513448FFF76AFDC82030
:1027700001F0C0FA4FF480513048FFF764FD0021AA
:10278000FD2000F043F90021122000F03FF9002164
:10279000AE2000F03BF90021D52000F037F90021F0
:1027A000A02000F033F90021A82000F02FF900212B
:1027B0003F2000F02BF90021D32000F027F9002161
:1027C000084600F023F90021402000F01FF9002105
:1027D000A12000F01BF90021C82000F017F900210A
:1027E000DA2000F013F90021122000F00FF9002187
:1027F000812000F00BF900217F2000F007F9002173
:10280000D92000F003F90021822000F0FFF8002118
:10281000DB2000F0FBF80021342000F0F7F8002165
:10282000A42000F0F3F80021A62000F0EFF8FFF755
:102830002DFF0021AF2000F0E9F808BD000C014099
:1028400070B500241CE004F1B001C8B2002100F012
:10285000DDF80021084600F0D9F80021102000F032
:10286000D5F8002508E0084901EBC501085D012104
:1028700000F0CCF8681CC5B2802DF4DB601CC4B23B
:10288000082CE0DB70BD0000480100202DE9FE4F60
:102890000746884692461C460197CDF80080082CD2
:1028A00002D14FF006091FE02046E31704EB5373F3
:1028B000DB1021464FEAE47C04EB5C7C4FEAEC0C35
:1028C000A4EBCC0CBCF1000F02D04FF0010C01E0E6
:1028D0004FF0000C6344224604EBD27C4FEA6C0CB0
:1028E00003FB0CF303F0FF09AAF12000C6B2002598
:1028F0005EE0082C07D106EB46002F4901EB4000B3
:1029000010F805B01DE00C2C07D106EB46002B4952
:1029100001EB800010F805B013E0102C05D1284819
:1029200000EB061010F805B00BE0182C07D106EBF1
:10293000C600244901EB800010F805B001E0BDE8B5
:10294000FE8F002002901CE00BF0010028B14146F0
:1029500038460C9AFFF7B2FE09E00C9808B901203E
:1029600000E00020024641463846FFF7A7FE4FEA46
:102970006B0B08F1010000F0FF080298401CC0B288
:10298000029002980828DFDB781CC7B2082C0BD015
:1029900004EBD4714A100199791A8A4204D1019F3B
:1029A00000980830C0B20090DDF80080681CC5B205
:1029B0004D459EDB00BFC2E78E470008B6490008C0
:1029C0002A4E00081A5400082DE9F84106460F4621
:1029D00014461D46DDF81C8013E0CDF800802278F7
:1029E0002B4639463046FFF751FF082D02D1B01D66
:1029F000C6B205E0284605EBD07106EB6101CEB208
:102A0000641C20780028E8D1BDE8F88170B5044640
:102A10000E462EB14FF400511C48FFF714FC04E0A1
:102A20004FF400511948FFF70CFC4FF48041174850
:102A3000FFF707FC00251BE04FF480611348FFF708
:102A400000FC04F0800028B14FF400610F48FFF74C
:102A5000FAFB04E04FF400610C48FFF7F2FB4FF47F
:102A600080610A48FFF7EFFB6006040E681CC5B2E0
:102A7000082DE1DB4FF480410448FFF7E4FB4FF4FD
:102A800000510248FFF7DFFB70BD0000000C014061
:102A9000704700002DE9F0410446E9480078092814
:102AA00076D2DFE800F0050D7EFEFDFCFBFAF900B2
:102AB0002A2C04D10120E2490870FFF7E7FDBBE1B1
:102AC000312C14D10220DE4908701421DD48FDF7B5
:102AD000E5FC0120DC4908703020DA49087000204C
:102AE00048703220D9490870FFF7D0FD58E0322CE9
:102AF00005D10320D2490870FFF7C8FD50E0332C00
:102B000005D10420CE490870FFF7C0FD48E0342C01
:102B100019D10021CE48006801F088FD40D206207E
:102B2000C7490870FFF7D6FCCA49C948006801F0D8
:102B300053FB0546284601F02DFC0646FFF738FDFD
:102B4000FFF7A4FD2CE0432C23D1C349C348006800
:102B500001F0A0FC054601F01DFCC149096888424E
:102B600007D1C0A1C348FDF74AFC1E20C249087026
:102B700016E00820B2490870FFF7ACFCB4480068C2
:102B800001F008FC0546FFF71FFDFFF77FFD07E09A
:102B900051E1232C04D10020A9490870FFF776FDEC
:102BA0004AE1AA480078002801DDBDE8F081302C18
:102BB00025DB392C23DCA44800780F2811DAA24841
:102BC000007801280ED19F48007830280AD12E2C99
:102BD00008D09C48047000209A49487001209A4906
:102BE000087079E0984801780078401C964A107087
:102BF0009448445400209349127888546CE0442C43
:102C000018D1914800780F2866DA2E218D48FDF7FB
:102C1000ECFB002860D12E218B4802780078401C04
:102C2000894B187087488154002086491A461278CB
:102C3000885451E0432C15D114218248FDF72EFC15
:102C400001208149087030207E49087000204870BA
:102C50008AA18848FDF7D3FB1E2087490870FFF73B
:102C600015FD39E02A2C29D1764801F00BF80646EB
:102C700001F032F905467648056072498248FDF751
:102C8000BEFB82A17B48FDF7BAFB6E497948FDF790
:102C9000F9FB1E20784905E0CCE0BFE0BDE09EE0F6
:102CA0005CE01AE00870002067490870142165484C
:102CB000FDF7F4FB0120624908700DE0232C0BD1D5
:102CC00000206149087014215E48FDF7E7FB0120F0
:102CD0005B490870FFF7DAFCAEE0412C01D0422CD2
:102CE0000AD105205649087000206A4908706A49CF
:102CF0000870FFF7EFFB30E0432C1FD15848006805
:102D000001F080FB05464FF0755101F0C3FB5349BC
:102D1000086062495148006801F0BCFB064601F0BA
:102D20001DFB0546FFF7CAF95DA15248FDF767FB99
:102D30001E2051490870FFF7A9FC0EE0442C05D174
:102D400001203F490870FFF7A1FC06E0232C04D1C5
:102D500001203B490870FFF799FC6DE0412C01D040
:102D6000422C0AD1052036490870002049490870D4
:102D700049490870FFF7AEFB30E0432C1FD13848BB
:102D8000006801F03FFB05464FF0755101F082FBF2
:102D90004749086041494648006801F07BFB064608
:102DA00001F0DCFA0546FFF779F942A13148FDF759
:102DB00026FB1E2030490870FFF768FC0EE0442C0B
:102DC00005D101201E490870FFF760FC06E0232CA6
:102DD00004D101201A490870FFF758FC2CE0412C5F
:102DE0000BD101202B49087000202B490870FFF7F8
:102DF00071FBC820FFF7DCFB0EE0422C0BD1012059
:102E000025490870002023490870FFF763FBC8209C
:102E1000FFF7DAFB00E000BF0EE00DE0232C08D145
:102E2000082007490870FFF755FB4FF49670FFF72D
:102E3000CBFB01E000E000BF00BF00BFB5E6000033
:102E4000000000206C000020140000201000002072
:102E5000040000200000A040ABAAAA410800002006
:102E600040000020416C72656164792061742048E3
:102E70006F6D65005800002011000020436C6561F3
:102E800072656421000000004400002053617665F3
:102E9000643A200012000020130000200000C84205
:102EA000486F6D652043616C69627261746564008E
:102EB0000C0000204272616B652053657421000094
:102EC00029B1064AD2690243044BDA6104E0034A9D
:102ED000D2698243014BDA61704700000010024062
:102EE00029B1064A92690243044B9A6104E0034AFD
:102EF00092698243014B9A617047000000100240C2
:102F000008B58020ADF8000003208DF802001420E1
:102F10008DF8030069460248FFF7FFF808BD00007E
:102F2000000C0140704710B500F002F810BD000021
:102F30000CB50020019000903348006840F48030C8
:102F40003149086000BF3048006800F4003000904C
:102F50000198401C0190009818B90198B0F5A06F35
:102F6000F1D12948006800F4003010B10120009030
:102F700001E0002000900098012843D12348006818
:102F800040F01000214908600846006820F0030066
:102F900008600846006840F0020008601A4840686F
:102FA000194948600846406848600846406840F44F
:102FB000806048600846406820F47C1048600846FD
:102FC000406840F4E81048600846006840F08070AF
:102FD000086000BF0C48006800F000700028F9D0BD
:102FE0000948406820F003000749486008464068E7
:102FF00040F00200486000BF0348406800F00C0049
:103000000828F9D10CBD0000001002400020024049
:10301000042808D14FF0E021096941F004014FF084
:10302000E022116107E04FF0E021096921F004017D
:103030004FF0E022116170477047000010B513484F
:10304000006840F0010011490860084640681049D6
:1030500008400E494860084600680E4908400B4980
:1030600008600846006820F4802008600846406830
:1030700020F4FE0048604FF41F008860FFF753FF04
:103080004FF000600449086010BD000000100240CD
:103090000000FFF8FFFFF6FE08ED00E02DE9FC4719
:1030A000002600246A480078002804DD684800787B
:1030B000401E6749087067480078002812DDFFF756
:1030C000E5FA01201023644A182100900846FFF712
:1030D0007BFCFFF7B5FB5F480078401E5D49087038
:1030E000BDE8FC8700F028FD80B95C4806883046C2
:1030F000FFF79CF9044634B12046FFF7CBFC96203D
:1031000000F0F8FD02E00020FFF7C4FC544800780E
:1031100005284AD0062802D0082854D116E0514983
:103120005148006801F0B6F9074601F033F94F49FC
:1031300008604F4800680968884206D3072048495C
:103140000870FFF789FAFFF7CDF93DE04549494896
:10315000006801F09FF9074601F01CF94649086034
:1031600043480068096888420CD9444944480068CB
:1031700001F032F80746384601F00CF98046FFF7B7
:1031800023FA11E0FFF768FAFFF7ACF900203449A1
:10319000087039480068364908603AA12E48FDF7A2
:1031A0002EF91E202B4908700EE03A48007848B9E5
:1031B0003948007830B9FFF74FFA012028490870E4
:1031C000FFF764FA00E000BF00BF2948006801F083
:1031D00019F907464FF0755101F05CF90546204892
:1031E0000078022819D12348006801F0B7F8074693
:1031F0001D48006801F0B2F88046284601F0AEF89C
:103200008146264843464A46CDE900701C4801687D
:103210001348007800F042F918E01648006801F001
:103220009DF807461048006801F098F88046284647
:1032300001F094F881461A4843464A46CDE90070A9
:103240000F4801680648007800F028F900BF47E7FA
:103250001000002011000020580000203E00002037
:1032600000000020ABAAAA410C000020180000209A
:1032700040000020080000201C0000200000A040AA
:103280000400002052657365742053756363657391
:103290007321000012000020130000206C000020A9
:1032A0004400002010B50121880700F01CF840B14F
:1032B00004480068401C034908600121880700F0A9
:1032C00003F810BD40000020CA430282704721B1BC
:1032D000028842F00102028004E002884FF6FE7389
:1032E0001A400280704730B50246002000230024B7
:1032F000158A05EA0103958905EA010413B10CB1A9
:10330000012000E0002030BD1AB183890B43838186
:1033100002E083898B4383817047000070B50024ED
:1033200000220023058C4FF6FE7635400584028C82
:103330008388048B4FF68F752C40B51E2C400D886A
:103340002C43751E2A400D892A434D882A43144D6B
:10335000A8420BD0134DA84208D0134DA84205D067
:10336000124DA84202D0124DA84213D14FF6F77564
:103370002A404D892A434FF6FB752A408D882A43FF
:103380004FF6FF652B404FF6FF552B408D892B43A1
:10339000CD892B4383800483CD888586028470BDCC
:1033A000002C014000340140004001400044014035
:1033B000004801400A460021018B4FF6F77319407F
:1033C0001143018370470021018041808180C180C9
:1033D000018141818181C1817047818570478186EA
:1033E00070470000002202881D4B98420ED01D4BF2
:1033F00098420BD0B0F1804F08D01B4B984205D0BB
:103400001A4B984202D01A4B984204D14FF68F7350
:103410001A404B881A43174B984207D0164B9842D4
:1034200004D04FF6FF431A40CB881A4302808B88A2
:1034300083850B8803850A4B98420BD0094B984231
:1034400008D00E4B984205D00D4B984202D00D4B40
:10345000984201D10B7A03860123838270470000D2
:10346000002C0140003401400004004000080040EE
:10347000000C0040001000400014004000400140DB
:1034800000440140004801404FF6FF718180002157
:103490000180C18041800172704700002DE9F04F2A
:1034A00087B00646894693469A46119C092E7DD2DE
:1034B000DFE806F0056689BEE4FDFC7CFB00012028
:1034C0001023CBA2002100900846FFF77DFA0120CF
:1034D0001023CCA20F2100900020FFF775FA84B1D1
:1034E000207870B12046FCF7AEFF8021A1EBC0052B
:1034F00001200090E8B2102322460F21FFF764FA62
:1035000007E001201023C4A20F2100907820FFF7CC
:103510005BFA01201023C1A21E2100900020FFF7BA
:1035200053FA5A46C2A102A8FCF788FE02A8FCF78B
:103530008AFF8021A1EBC00501200090E8B2102392
:1035400002AA1E21FFF740FA01201023B9A22E2162
:1035500000900020FFF738FA5246B5A102A8FCF708
:103560006DFE02A8FCF76FFF8021A1EBC0050120D2
:103570000090E8B2102302AA2E21FFF725FA33E1CA
:1035800001201023B0A2002100900846FFF71CFA8A
:1035900001201023B1A20F2100900020FFF714FAA0
:1035A00001201023B2A21E21009000E01BE10020A8
:1035B000FFF70AFA01201023B2A22E21009000206A
:1035C000FFF702FA10E101201023B3A200210090BE
:1035D0000846FFF7F9F901201023B4A20F2100904B
:1035E0000020FFF7F1F954B1207840B101201023F9
:1035F00022460F2100903020FFF7E6F907E0012076
:10360000102385A20F2100903020FFF7DDF9012063
:103610001023ABA21E2100900020FFF7D5F9012056
:103620001023ACA22E2100900020FFF7CDF9DBE0A3
:1036300001201023ACA2002100900846FFF7C4F936
:1036400001201023ADA20F2100900020FFF7BCF94C
:1036500001201023AEA21E2100900020FFF7B4F934
:103660005A46B0A102A8FCF7E9FD0120102302AAE6
:103670002E2100900020FFF7A7F9B5E001201023CC
:10368000ADA2002100900846FFF79EF9012010230B
:103690009AA20F2100900020FFF796F90120102335
:1036A000AAA21E210090002002E07EE031E00FE09F
:1036B000FFF78AF95A469BA102A8FCF7BFFD01203B
:1036C000102302AA2E2100900020FFF77DF98BE045
:1036D00001201023A2A2002100900846FFF774F9F0
:1036E00001201023A3A20F2100900020FFF76CF906
:1036F00001201023A4A21E2100900020FFF764F9EE
:1037000001201023A5A22E2100900020FFF75CF9D4
:103710006AE001201023A6A2002100900846FFF7CE
:1037200053F9484600F020FD07463A460B46A5A14E
:1037300002A8FCF783FD02A8FCF785FE8021A1EB1F
:10374000C00501200090E8B2102302AA0021FFF773
:103750003BF90120102331A2142100900020FFF733
:1037600033F95A4632A102A8FCF768FD02A8FCF71B
:103770006AFE8021A1EBC00501200090E8B2102371
:1037800002AA1421FFF720F90120102390A228217A
:1037900000900020FFF718F9012010238CA234219B
:1037A00000900020FFF710F91EE0012010238DA2E9
:1037B0000A2100900020FFF707F9012010238EA2B4
:1037C0001E2100900020FFF7FFF85A4655A102A8DD
:1037D000FCF734FD0120102302AA302100901820AC
:1037E000FFF7F2F800E000BF00BF07B0BDE8F08FC0
:1037F0004D6F64653A2049444C452020202020200C
:103800000000000053706565643A202020202020CD
:10381000202020200000000030000000437572507E
:103820006F733A202020202020202020000000005C
:103830002564000042726B506F733A2020202020D4
:103840002020202000000000312E53657420546198
:10385000726765745370642000000000322E536557
:103860007420486F6D6520506F696E740000000011
:10387000332E536574204272616B65506F696E74AC
:1038800000000000342E4175746F52756E20233A8B
:103890004261636B000000005365742054617267DD
:1038A000657420537065656400000000496E707592
:1038B000743A20202020202020202020000000001A
:1038C000433A20436C65617220496E707574202004
:1038D000000000002A3A536176652020233A4361B4
:1038E0006E63656C0000000053657420486F6D6561
:1038F00020506F696E74202000000000412F423A72
:10390000204D616E75616C204D6F76650000000082
:10391000433A2043616C696272617465486F6D65FA
:1039200000000000506F733A2025642020202020E2
:103930002020202000000000536574204272616B3B
:103940006520506F696E742000000000433A2043E8
:10395000616C6962726174652042726B00000000E4
:103960004D6F64653A204D414E55414C202020203A
:1039700000000000413A20466F7277617264202097
:103980002020202000000000423A20526576657217
:10399000736520202020202000000000433A20539F
:1039A000657420486F6D65202020202000000000F5
:1039B00043757253706565643A20202020202020D2
:1039C00020202000252E31662052504D000000009E
:1039D00020202020202020202020202020202020E7
:1039E000000000002053797374656D205265736583
:1039F00074202020000000002052657475726E69EA
:103A00006E6720486F6D65200000000010B540F221
:103A100025511D4800F03EF810B31B4800F064F833
:103A2000C4B21A48008800F40040C8B9174800889A
:103A300000F4804060B10A2C03D0002013490880B4
:103A400020E01248008840F400401049088019E046
:103A50000D2C06D10D48008840F480400B490880A9
:103A600010E00A480088C0F30D0009490C540748CB
:103A70000088401C0549088008460088C72801DDE9
:103A80000020088010BD0000003801403C000020EC
:103A90008000002070B5024600240023002500208D
:103AA00040F66A16B14200D100BFC1F3421501F0E1
:103AB0001F03012606FA03F3012D02D19689334034
:103AC00006E0022D02D1168A334001E0968A334087
:103AD0000C12012606FA04F41688344013B10CB116
:103AE000012000E0002070BD01468888C0F3080076
:103AF000704700BFFEE7000008B501210820FFF76E
:103B0000EFF94020ADF8000003208DF802001020EE
:103B10008DF8030069460748FEF7FFFAFFF7F0F952
:103B200040210448FEF78FFB80210248FEF78BFB03
:103B300008BD0000000C014070B500240025FEF710
:103B40001FFCCB20FEF7F4FBFEF748FC18B1FEF794
:103B500031FC012070BD0020FEF7ACFB04460120C3
:103B6000FEF7A8FB0546FEF725FC44EA05200249BE
:103B700008800020EEE700003E000020490050EAE7
:103B8000C12018BF04204A0D18BF40F0010040F2C8
:103B9000FF72B2EB515F08BF40F00200012808BF7E
:103BA0000520704740F2013200204FF0E04100F064
:103BB000A2BD0000024A0020110700F09CBD0000D9
:103BC00001FDFFFF10B50446D1E9000100F002F845
:103BD000206010BDF8B504460D466A4600F0B0F806
:103BE00000987E30009000281FDC002213462046FB
:103BF000294600F0B7F918D0002140F608004FF030
:103C0000000006462046294600F066F9044640F6C4
:103C1000080006EA00014FF0000034F0004004BF45
:103C20000220FCF766FC2046F8BD0098FF280DDB5B
:103C30000220FCF75EFC002213462046294600F0D5
:103C40005DFA8CBF04484FF0FF40F8BD204629467E
:103C5000BDE8F84000F040B9000080FF10B5044610
:103C60000A46D4E90003194600F096F8C4E90001B9
:103C700010BD30380A2801D201207047002070475B
:103C800000BF704730B583B00446FCF72DFC0546F5
:103C90000020CDE90000024621466846FCF7D2FE2E
:103CA0002846FCF726FCDDE9000103B030BD00002A
:103CB00010B56FF00400FFF7ABF90A4800680A4935
:103CC000B0FBF1F0094908700846007800EB4001AC
:103CD000C1EBC0104FF6FF7101EAC0000449088033
:103CE00010BD00002000002000127A0034000020E7
:103CF000360000200146114A12884A434FF0E02363
:103D00005A6100229A611A46126942F001021A6150
:103D100000BF4FF0E022106900F001021AB100F478
:103D20008032002AF5D04FF0E022126922F0010221
:103D30004FF0E0231A6100229A617047360000209C
:103D400010B5144600222260114A21F0004393422C
:103D5000A8BF10BD53EA000208BF10BDB3F5801F15
:103D6000A8BF226807DA362200F0C5FC6FF03502E2
:103D700021F000432260DFF81CC06FF31E510CEBF2
:103D800023531A4441F0FF5141F00051226010BD0D
:103D90000000F07F02FCFFFF2DE9F04106460C46D3
:103DA00040F2FF75174635EA14502BD00022134617
:103DB000304600F0D7F825D03A463046214600F08C
:103DC0009AFC06460C4635EA145010D000221346E1
:103DD000304600F0C7F815D10220FCF78AFBFFF748
:103DE000E9FE0A46214662F31E01BDE8F081022089
:103DF000FCF77FFBFFF7D6FE0A46214662F31E0161
:103E0000BDE8F08130462146BDE8F081FEF720FA9A
:103E1000FEF73EF9054600F0DDFA0446154900F0CC
:103E2000DBF915490860FEF72DF9054600F0D2FAD6
:103E30000446104900F0D0F91049086000210E48EE
:103E4000006800F0F3FA02D200200B49086000215C
:103E50000A48006800F0EAFA02D200200749086028
:103E6000FEF738FB04E0FFF719F90A20FFF742FFDD
:103E7000F9E700000000C842080000200C00002004
:103E800010B500290AD00878002807D005487844E2
:103E9000FDF7E0F9002801D0002010BD0248784469
:103EA00010BD00008E2E0000862E000010B50029E7
:103EB0000AD00878002807D005487844FDF7CAF9E9
:103EC000002801D0002010BD0248784410BD000039
:103ED0007E2E0000762E000021F00042A2F16052FA
:103EE000B2F5801F01F0004328BFD2F17F6C0BD9DF
:103EF0005FEA001C43EAC20242EB507018BF7047F1
:103F000028BF20F001007047B2F5801FBCBF1846E3
:103F100070474FEA410C1CF5001F02D2084600F022
:103F200080BB70B500F096F800000089FFF7F6BF7F
:103F30004FF00040A0F580007047000002494FF0AC
:103F4000000000F0A6BB00BF0000F87F491058BF7A
:103F5000C1F140415B1058BFC3F140438B42EFF3C6
:103F60000080704751EA030C17D41CF5801F58BF1E
:103F7000BCF5801F00F10680994218BF704708BF4A
:103F80009042704707D711F5801F58BF13F5801F67
:103F900019D499427047894270471CF5801F08D593
:103FA000BCF5801FF7D58B4218BF704708BF82420F
:103FB00070474FF4001C1CEB410F38BF1CEB430F44
:103FC00001D28B42704770B500F044F8922449004A
:103FD0004FF000514FF08053FFF7B8BF51EA030C88
:103FE00017D41CF5801F58BFBCF5801F00F1068058
:103FF000994218BF704708BF9042704707D711F524
:10400000801F58BF13F5801F19D499427047894209
:1040100070471CF5801F08D5BCF5801FF7D58B4273
:1040200018BF704708BF824270474FF4001C1CEB5A
:10403000410F38BF1CEB430F01D28B42704770B564
:1040400000F008F8922449004FF000514FF08053DF
:10405000FFF77CBF0EF1020E2EF0030E5EF8046B2C
:10406000364205D4012A43EB030515F5001F12D88B
:10407000012841EB010C1CF5001F0CD80ED14FEAB2
:10408000D17C15F5001F0CEB4C0C0CF1020C08BF99
:104090004CEBD37C04E04FF0080C01E04FEAD37CFA
:1040A0000CEB4C0526FA05F606F00706B6F1040CF3
:1040B00006D20EEB860CBDE870404CF0010C604758
:1040C000DFE80CF0090B02024FF000414FF0000056
:1040D000A1F5002170BD19461046012851EB0104DD
:1040E00018BFD4F5001484BF002001F0004170BD5A
:1040F0000808A0F500114FEA3101704753EA010C9E
:1041000017D41CF5801F58BFBCF5801F00F1068036
:104110008B4218BF704708BF8242704707D713F51C
:10412000801F58BF11F5801F19D48B4270479B42E6
:1041300070471CF5801F08D5BCF5801FF7D5994244
:1041400018BF704708BF904270474FF4001C1CEB2B
:10415000430F38BF1CEB410F01D2994270470FB497
:104160000CBC03BCFFF76BBF43004FEAD30C4FEA14
:104170003C0C43401FBF40070CF1605113F0FE4F51
:1041800070471CF0006F03D100200CF00041704715
:104190000CF0004343EA507010B540EACC0000F048
:1041A000FAF900BF000000924FEA0001FFF7A0BF3C
:1041B0004FF000414FF00000A1F500217047401082
:1041C00058BFC0F14040491058BFC1F14041814241
:1041D000EFF30080704700004FF47F0C1CEAD01210
:1041E0001EBF1CEAD11392EA0C0F93EA0C0F00F0E9
:1041F000858090EA010F48BF42F4807240F4000CC1
:1042000041F400002CF07F4120F07F4000B5814256
:10421000A2EB03020FF2081CACEB504EC0F1000001
:104220009EF800E04FEA4E0E00FB0EFC38BF49003E
:104230004FEA2C1C02F5FA020CFB0EF34FEACE1EDD
:104240004FEA112C4FEAC1210EEB635E42EB224292
:104250000EFB0CFC4FEA1C5300FB03114FEA112C20
:104260004FEA01310EFB0CFC4FEADC4C00FB0C1159
:10427000C14228BF09184CEB03335DF804EB10EB87
:10428000410143EBC250B2F57C0F38BF704729D5CE
:1042900012F0F00F1CBF00F1C04000F0004070476A
:1042A000008182838485868788898B8C8D8E8F910F
:1042B0009293959697999A9C9D9FA0A2A3A5A7A833
:1042C000AAACAEB0B2B3B5B7B9BCBEC0C2C5C7C95F
:1042D000CCCED1D4D7D9DCDFE2E6E9ECF0F3F7FAC3
:1042E000FE0000004FEA400C0CF1807CBCF17E4FD8
:1042F00028BF7047B0F1C04000F093B990EA010FB9
:104300000CEAD11348BF42F48072624538BF63455E
:1043100007D213F47F0F16D080EA010000F00040AE
:10432000704710B500F037F9097EFC3E00F005B883
:1043300080EA010000F00040704780EA010000F0D0
:10434000004000F06EB912F47F0F04BF02487047BE
:1043500080EA010000F065B90000C07F41000B0E4B
:10436000D3F19E0208D950F400034FEA032323FA45
:1043700002F048BF4042704710B500F00CF900BF92
:1043800049922480002070476FF0004282EA2000AA
:1043900070470000C10DD1F19E0206DB4FEA0023F9
:1043A00043F0004323FA02F07047004207D54FEA7A
:1043B0004001B1F1FE4F02D24FF00000704710B53E
:1043C00000F0E9F849922480002070476FEA20004D
:1043D0007047000010F0004148BF4042B0FA80F33F
:1043E00010FA03F2C3F19D030BD051EAC35101EB64
:1043F0001220530638BF704700F1010008BF20F0BB
:1044000001007047B0FA80F310FA03F2C3F19D0384
:104410000AD0D90501EB1220530638BF704700F1CE
:10442000010008BF20F001007047000050EA010CB5
:1044300000F113801CF5000F58BFBCF5000F01D42C
:104440008842704707D710F5000F58BF11F5000FCD
:1044500015D488427047894270471CF5000F04D577
:10446000BCF5000FF7D5814270474FF0807C1CEB04
:10447000400F38BF1CEB410F01D28142704710B58D
:1044800000F089F8922449004FF000504FF080511D
:10449000FFF795BE4FF47F0C1CEAD0121EBF1CEA3A
:1044A000D11392EA0C0F93EA0C0F00F0478090EAC8
:1044B000010F48BF42F480724FF0004C4CEA0020DC
:1044C0004CEA012102EB0302A0FB0113A2F500025A
:1044D000002918BF43F001035B0028BF4FEA3303F4
:1044E00042EB22425FEA132C4CEBC2502EBFBCEBD6
:1044F000436FB2F57C0F70474FEA036CBCF1004F7D
:1045000008BF20F00100B2F57C0F38BF70470BD513
:1045100082F0FF0212F5803FC8BF704700F1C04033
:10452000D8BF00F00040704700F5000C5FEA4C0C6B
:1045300048BF7047B0F1C04000F073B890EA010F77
:104540000CEAD11348BF42F48072624538BF63451C
:1045500004D280EA010000F00040704710B500F07E
:104560001AF800BF8900013E00F007B800F009B852
:104570005FEA410C5FEA1C6C08D080EA010000F0A1
:1045800050B85FEA400C5FEA1C6CF6D14FF0004077
:10459000A0F5800070470EF1020E2EF0030E5EF8BB
:1045A000044B244204D44FEA4102B2F17F4F11D8A8
:1045B0004FEA4003B3F17F4F0CD80ED14FEAD07CC5
:1045C000B2F17F4F0CEB4C0C0CF1020C08BF4CEB22
:1045D000D17C04E04FF0080C01E04FEAD17C0CEBF9
:1045E0004C0324FA03F404F00704B4F1040C06D2DB
:1045F0000EEB840CBDE810404CF0010C6047DFE886
:104600000CF0070802024FF00040A0F5800010BD3A
:104610000846420018BFD2F1807288BF00F0004007
:1046200010BDFF2141EAD050C005704751EA000C8F
:1046300000F113801CF5000F58BFBCF5000F01D42A
:104640008142704707D711F5000F58BF10F5000FD2
:1046500015D481427047894270471CF5000F04D57C
:10466000BCF5000FF7D5884270474FF0807C1CEBFB
:10467000410F38BF1CEB400F01D28842704780EADF
:10468000010081EA000180EA0100FFF7F8BEFCF7B3
:1046900066B80CF00F03092B08BF082000F05F80FC
:1046A0000A2B0BD0082B18BF704708BF1CF0400F17
:1046B0000AD04FF000004FF0000170471CF0400F8F
:1046C00018BF4FF0004070471CF0100F08D020F0CA
:1046D000704300F07F4242EAD3014FEA43707047D3
:1046E00000F0604021F07F4242EA000201F07F408A
:1046F00040EA727070474FF0FF0C4CF4E06C1CEA1B
:1047000011531CBF9CEA030C9445C2BFDA4201EB73
:1047100002517047002B0DD0BCF1000F0FD0002AC2
:1047200001F00041A4BF41F0E04141F07F614FF052
:104730000000704701F000414FF00000704750EA60
:1047400001334FF09B0C18BF4CF0806C7FF4F6AB3C
:104750007047FCF725BCFCF7BDBDFCF747BF1CF458
:10476000801F11D01CF4E02F03D06FEACC31490038
:1047700070474FF04050EFF3008222F0704242EA5F
:10478000000282F3008870474FF00000704700007D
:10479000000000000000002F0000000007000700DC
:1047A00000147F147F1400242A7F2A1200626408F8
:1047B0001323003649552250000005030000000075
:1047C0001C224100000041221C000014083E081475
:1047D0000008083E0808000000A060000008080863
:1047E0000808000060600000002010080402003E7D
:1047F0005149453E0000427F400000426151494618
:10480000002141454B31001814127F100027454507
:104810004539003C4A494930000171090503003619
:104820004949493600064949291E0000363600002C
:104830000000563600000008142241000014141431
:10484000141400004122140800020151090600322C
:104850004959513E007C1211127C007F494949366A
:10486000003E41414122007F4141221C007F4949D5
:104870004941007F09090901003E4149497A007F09
:104880000808087F0000417F4100002040413F01AF
:10489000007F08142241007F40404040007F020C0E
:1048A000027F007F0408107F003E4141413E007FAF
:1048B00009090906003E4151215E007F0919294678
:1048C0000046494949310001017F0101003F404054
:1048D000403F001F2040201F003F4038403F006302
:1048E0001408146300070870080700615149454324
:1048F00000007F41410000552A552A5500004141E2
:104900007F000004020102040040404040400000DB
:1049100001020400002054545478007F4844443875
:1049200000384444442000384444487F00385454FC
:10493000541800087E0901020018A4A4A47C007F7A
:10494000080404780000447D4000004080847D001D
:10495000007F102844000000417F4000007C0418C4
:104960000478007C0804047800384444443800FC8F
:10497000242424180018242418FC007C08040408AB
:1049800000485454542000043F444020003C404020
:10499000207C001C2040201C003C4030403C004457
:1049A00028102844001CA0A0A07C004464544C445F
:1049B000141414141414000000000000000000007F
:1049C00000000000FC000000000002000000000CDD
:1049D000020C020000000000000090D0BCD0BC908F
:1049E0000003000300001824FE448C0003020702A9
:1049F00001001824D8B04C80000300010201C03827
:104A0000E438E00001020201020208060000000092
:104A1000000000000000000000F804020000000197
:104A20000204000204F8000000040201000090608B
:104A3000F86090000000010000002020FC20200011
:104A40000000010000000000000000000806000057
:104A500000002020202020000000000000000000B6
:104A6000000000000002000000000080601C020046
:104A7000040300000000F8040404F800010202022C
:104A800001000008FC00000000020302000018847E
:104A90004424180003020202020008042424D8005F
:104AA00001020202010040B088FC80000000000307
:104AB00002003C242424C400010202020100F82464
:104AC000242CC0000102020201000C04E41C0400BA
:104AD000000003000000D8242424D80001020202B0
:104AE000010038444444F8000003020201000000C1
:104AF0001000000000000200000000002000000084
:104B000000000600000000205088040200000000A1
:104B100001029090909090000000000000000002C0
:104B2000048850200002010000001804C42418006A
:104B3000000002000000F804E494F8000102020200
:104B4000020000E09CF0800002030000030204FC6D
:104B50002424D800020302020100F80404040C001B
:104B600001020202010004FC0404F8000203020234
:104B7000010004FC24740C0002030202030004FC84
:104B800024740C00020302000000F0080444CC402E
:104B900000010202010004FC2020FC0402030000CA
:104BA00003020404FC0404000202030202000004E5
:104BB00004FC040406040403000004FC24D00C04D8
:104BC00002030200030204FC0400000002030202CC
:104BD0000203FC3CC03CFC0003000300030004FC97
:104BE00030C4FC04020302000300F8040404F800CB
:104BF00001020202010004FC242418000203020046
:104C00000000F8848404F80001020207050004FC97
:104C100024649800020302000302182424448C0038
:104C20000302020201000C04FC040C000002030257
:104C3000000004FC0000FC04000102020100047CEE
:104C400080E01C040000030000001CE03CE01C00AD
:104C5000000300030000049C609C040002030003A6
:104C60000200041CE01C04000002030200000C848B
:104C7000641C04000203020203000000FE020200A2
:104C8000000007040400000E30C000000000000116
:104C90000200000202FE00000004040700000004FD
:104CA00002040000000000000000000000000000FE
:104CB00008080808080800000200000000000000C2
:104CC00000000040A0A0C00000010202030204FC9A
:104CD0002020C00000030202010000C0202060006C
:104CE00000010202020000C02024FC0000010202B8
:104CF000030200C0A0A0C0000001020202000020C8
:104D0000F82424040002030202000040A0A0602056
:104D100000070A0A0A0404FC2020C0000203020063
:104D200003020020E4000000000203020000000073
:104D300020E4000008080807000004FC80E02020B0
:104D40000203020003020404FC000000020203024A
:104D50000200E020E020C00003000300030020E088
:104D60002020C00002030200030200C02020C00077
:104D700000010202010020E02020C000080F0A020A
:104D8000010000C02020E0000001020A0F0820E01E
:104D9000402020000203020000000060A0A02000CC
:104DA0000002020203000020F820000000000102BF
:104DB000020020E00020E00000010202030220E0E7
:104DC000208060200000030100006080E08060001F
:104DD0000003000300002060806020000203000345
:104DE000020020E020806020080807010000002069
:104DF000A0602000000203020200000020DE02008A
:104E0000000000070400000000FF00000000000F89
:104E100000000002DE200000000407000000020184
:104E20000204040200000000000000000000000076
:104E300000000000000000000000000000F800007A
:104E40000000000000333000000000100C06100CC1
:104E50000600000000000000000040C07840C0785C
:104E60004000043F04043F040400007088FC083044
:104E70000000001820FF211E0000F008F000E018DC
:104E8000000000211C031E211E0000F00888700095
:104E900000001E2123241927211010160E000000E7
:104EA00000000000000000000000000000E0180406
:104EB0000200000000071820400000020418E00073
:104EC00000000040201807000000404080F08040B3
:104ED00040000202010F01020200000000F0000089
:104EE00000000101011F010101000000000000009D
:104EF000000080B070000000000000000000000012
:104F0000000000010101010101010000000000009A
:104F10000000003030000000000000000000806051
:104F20001804006018060100000000E010080810D6
:104F3000E000000F102020100F00001010F80000FB
:104F400000000020203F2020000000700808088892
:104F50007000003028242221300000300888884862
:104F600030000018202020110E000000C02010F892
:104F7000000000070424243F240000F80888880863
:104F800008000019212020110E0000E01088881868
:104F90000000000F112020110E0000380808C8384A
:104FA00008000000003F000000000070880808882A
:104FB0007000001C222121221C0000E010080810B3
:104FC000E0000000312222110F00000000C0C000EC
:104FD00000000000003030000000000000800000F1
:104FE00000000000806000000000000080402010F1
:104FF00008000001020408102000404040404040EA
:10500000400004040404040404000008102040804C
:105010000000002010080402010000704808080881
:10502000F0000000003036010000C030C828E81051
:10503000E0000718272423140B000000C038E0000C
:105040000000203C23020227382008F88888887056
:105050000000203F202020110E00C0300808080862
:105060003800071820202010080008F80808081049
:10507000E000203F202020100F0008F88888E80872
:105080001000203F20202320180008F88888E80816
:105090001000203F200003000000C030080808383E
:1050A000000007182020221E020008F8080000084F
:1050B000F808203F210101213F20000808F80808D6
:1050C00000000020203F2020000000000808F80811
:1050D0000800C08080807F00000008F888C0281881
:1050E0000800203F20012638200008F808000000B2
:1050F0000000203F20202020300008F8F800F8F8B9
:105100000800203F003F003F200008F830C00008A2
:10511000F808203F200007183F00E010080808109A
:10512000E0000F10202020100F0008F808080808E1
:10513000F000203F210101010000E01008080810E4
:10514000E0000F18242438504F0008F88888888819
:105150007000203F2000030C3020007088080808F1
:1051600038000038202121221C00180808F80808FF
:1051700018000000203F2000000008F80800000888
:10518000F808001F202020201F000878880000C891
:105190003808000007380E010000F80800F8000881
:1051A000F800033C0700073C03000818688080688B
:1051B000180820302C03032C30200838C800C838C9
:1051C00008000000203F2000000010080808C83830
:1051D00008002038262120201800000000FE0202CE
:1051E00002000000007F40404000000C30C0000082
:1051F0000000000000010638C00000020202FE00AC
:105200000000004040407F00000000000402020255
:10521000040000000000000000000000000000008A
:105220000000808080808080808000020204000076
:10523000000000000000000000000000808080806E
:1052400000000019242222223F2008F8008080005C
:105250000000003F112020110E000000008080801F
:105260000000000E11202020110000000080808826
:10527000F800000E112020103F2000008080808068
:105280000000001F222222221300008080F0888864
:1052900088180020203F20200000000080808080AF
:1052A0008000006B94949493600008F800808080E4
:1052B0000000203F210000203F200080989800003F
:1052C00000000020203F202000000000008098986F
:1052D000000000C08080807F000008F8000080800F
:1052E0008000203F24022D302000000808F8000034
:1052F00000000020203F20200000808080808080EF
:105300008000203F20003F20003F80800080808080
:105310000000203F210000203F200000808080808E
:105320000000001F202020201F00808000808000BF
:10533000000080FFA12020110E000000008080806E
:105340008000000E112020A0FF80808080008080DF
:10535000800020203F21200001000000808080800C
:1053600080000033242424241900008080E0808001
:1053700000000000001F202000008080000000804E
:105380008000001F202020103F20808080000080AF
:10539000808000010E3008060100808000800080BF
:1053A00080800F300C030C300F0000808000808064
:1053B00080000020312E0E3120008080800000808F
:1053C000808080818E70180601000080808080803F
:1053D00080000021302C2221300000000000807C61
:1053E000020200000000003F404000000000FF00FB
:1053F000000000000000FF0000000002027C8000AE
:1054000000000040403F00000000000601010202D1
:105410000404000000000000000000000000000084
:10542000000000000000000000000000000000007C
:10543000000000000000000000000000000000006C
:10544000000000F0F0F0000000000000000000018B
:105450007F010000000000000000001C1C1C000078
:10546000000000008060301C8C60301C0C000000CC
:10547000000000000000000000000000000000002C
:10548000000000000000000000E00000000000E05C
:1054900000000086E69F86868686E69F86000001DD
:1054A0001F01010101011F010100000080C06020F7
:1054B000F820E0C00000000003070C18FF70E18135
:1054C00000000000070F10107F100F070000806021
:1054D000206080000000E02000000F3020309F702E
:1054E000DC371030C0000000100E03000718101841
:1054F00007000000C02020E0C0000000000080E0A5
:105500001F38E88703C43C040000070F1810100B75
:10551000070D1010080000808C4C380000000000BF
:10552000000000000000000000000000000000007B
:10553000000000000000000000000000000000006B
:1055400080E0300804000000000000FEFF010000C1
:105550000000000000000000030F182040000004BD
:105560000830E0800000000000000000000001FFA3
:10557000FE0000000000004020180F0300000000A3
:105580000000000000000000C00000000000004219
:1055900066663C18FF183C6666420000000000008A
:1055A0000300000000000000000000008000000078
:1055B0000000001010101010FF101010101000004C
:1055C00000000000030000000000000000000000D8
:1055D00000000000000000000000000000000000CB
:1055E000000000808C4C380000000000000000002B
:1055F000000000000000000000000010101010105B
:10560000101010101000000000000000000000004A
:10561000000000000000000000000000000000008A
:105620000000000000000000000000001C1C1C0026
:105630000000000000000000000000000000E03852
:105640000C000000000080701C03000000000060DF
:10565000380E0100000000000000000080C0602043
:105660002060C080000000FEFF010000000001FF7C
:10567000FE000001070E181010180E0701000000B0
:10568000808080C0E000000000000000000000FFFB
:10569000FF000000000000001010101F1F1010106D
:1056A00000000080402020202060C0800000000317
:1056B0000300804020381F070000001C1A1918182A
:1056C0001818181F00000080C020202060C0800033
:1056D0000000000303001010182FE78000000007EF
:1056E0000F10101010180F0700000000000000003D
:1056F000C0E0F000000000C0B088868180FFFF801D
:105700008000000000000010101F1F10100000009B
:10571000E060606060606060000000003F100808AA
:105720000818F0E0000000070B101010101C0F0309
:105730000000000080C040202020E0C0000000FCED
:10574000FF211008080818F0E0000001070C1810ED
:105750001010080F03000000C0E06060606060E0AF
:105760006000000003000000E018070000000000D7
:105770000000001F1F00000000000080C06020200B
:10578000202060C080000087EF2C1818303068CFD0
:10579000830000070F0810101010180F07000000FA
:1057A000C0C020202020C0800000001F3F6040407B
:1057B000402010FFFE0000000C1C101010080F030A
:1057C00000000000000000000000000000000000D9
:1057D0000000000E0E0E0000000000000000001C83
:1057E0001C1C000000000000000000000000000081
:1057F000000000000000000C0C0000000000000091
:105800000000005838000000000000000000000008
:105810000080402010000000102844820100000099
:105820000000000000000000010204081000000059
:1058300000000000000000000000008484848484D4
:1058400084848484840000000000000000000000C4
:105850000000000010204080000000000000000058
:10586000000000000182442810000000100804021B
:1058700001000000000000C020201010101030E0D7
:10588000C0000003030000F010080C070300000034
:1058900000001C1C1C0000000000000000C0406054
:1058A00020202040C00000FCFF01F00E03C1FE03D9
:1058B000807F0001070E0811111011090402000079
:1058C000000080E0E000000000000000807C434019
:1058D000477FF880000010181F1000000000131F01
:1058E0001C1020E0E02020202060C080000000FF8D
:1058F000FF10101010182FE78000101F1F1010103D
:105900001010180F0700000080C0402020202060E9
:10591000E00000FCFF0100000000000001000001A9
:10592000070E181010100804030020E0E0202020CB
:105930002040C080000000FFFF000000000001FFC9
:10594000FE00101F1F10101018080E07010020E0A5
:10595000E020202020202060800000FFFF10101099
:10596000107C00000000101F1F10101010101018E5
:10597000060020E0E020202020206060800000FF62
:10598000FF101010107C00000100101F1F100000FD
:10599000000000000000000080C06020202040E0E7
:1059A000000000FCFF0100004040C0C14040000179
:1059B000070E181010100F0F000020E0E02000006C
:1059C000000020E0E02000FFFF101010101010FF7A
:1059D000FF00101F1F1000000000101F1F1000000C
:1059E000202020E0E020202000000000000000FF38
:1059F000FF000000000000001010101F1F1010100A
:105A0000000000000000202020E0E0202020000016
:105A10000000000000FFFF0000000060E0808080C8
:105A2000C07F3F00000020E0E020000020A06020B8
:105A3000200000FFFF30187CE3C000000000101FB2
:105A40001F10000001131F1C181020E0E0200000B0
:105A500000000000000000FFFF0000000000000048
:105A60000000101F1F10101010101018060020E06A
:105A7000E0E000000000E0E0E02000FF013FFEC0A9
:105A8000E01E01FFFF00101F1000031F0300101F86
:105A90001F1020E0E0C0000000000020E02000FF18
:105AA0000003071C78E08000FF00101F10000000BA
:105AB0000000030F1F00000080C060202060C08035
:105AC000000000FEFF010000000000FFFE000001DA
:105AD000070E181010180C07010020E0E02020200D
